{
  "_format": "hh-sol-artifact-1",
  "contractName": "ArbitratorsRegistry",
  "sourceName": "contracts/ArbitratorsRegistry.sol",
  "abi": [
    {
      "inputs": [],
      "stateMutability": "nonpayable",
      "type": "constructor"
    },
    {
      "inputs": [
        {
          "internalType": "address",
          "name": "owner",
          "type": "address"
        }
      ],
      "name": "OwnableInvalidOwner",
      "type": "error"
    },
    {
      "inputs": [
        {
          "internalType": "address",
          "name": "account",
          "type": "address"
        }
      ],
      "name": "OwnableUnauthorizedAccount",
      "type": "error"
    },
    {
      "anonymous": false,
      "inputs": [
        {
          "indexed": true,
          "internalType": "address",
          "name": "arbitrator",
          "type": "address"
        }
      ],
      "name": "ArbitratorAdded",
      "type": "event"
    },
    {
      "anonymous": false,
      "inputs": [
        {
          "indexed": true,
          "internalType": "address",
          "name": "arbitrator",
          "type": "address"
        }
      ],
      "name": "ArbitratorRemoved",
      "type": "event"
    },
    {
      "anonymous": false,
      "inputs": [
        {
          "indexed": true,
          "internalType": "address",
          "name": "previousOwner",
          "type": "address"
        },
        {
          "indexed": true,
          "internalType": "address",
          "name": "newOwner",
          "type": "address"
        }
      ],
      "name": "OwnershipTransferred",
      "type": "event"
    },
    {
      "inputs": [
        {
          "internalType": "address",
          "name": "_arbitrator",
          "type": "address"
        }
      ],
      "name": "addArbitrator",
      "outputs": [],
      "stateMutability": "nonpayable",
      "type": "function"
    },
    {
      "inputs": [
        {
          "internalType": "address[]",
          "name": "_arbitrators",
          "type": "address[]"
        }
      ],
      "name": "addArbitrators",
      "outputs": [],
      "stateMutability": "nonpayable",
      "type": "function"
    },
    {
      "inputs": [],
      "name": "arbitratorCount",
      "outputs": [
        {
          "internalType": "uint256",
          "name": "",
          "type": "uint256"
        }
      ],
      "stateMutability": "view",
      "type": "function"
    },
    {
      "inputs": [
        {
          "internalType": "uint256",
          "name": "",
          "type": "uint256"
        }
      ],
      "name": "arbitratorList",
      "outputs": [
        {
          "internalType": "address",
          "name": "",
          "type": "address"
        }
      ],
      "stateMutability": "view",
      "type": "function"
    },
    {
      "inputs": [],
      "name": "getArbitrators",
      "outputs": [
        {
          "internalType": "address[]",
          "name": "",
          "type": "address[]"
        }
      ],
      "stateMutability": "view",
      "type": "function"
    },
    {
      "inputs": [
        {
          "internalType": "address",
          "name": "",
          "type": "address"
        }
      ],
      "name": "isArbitrator",
      "outputs": [
        {
          "internalType": "bool",
          "name": "",
          "type": "bool"
        }
      ],
      "stateMutability": "view",
      "type": "function"
    },
    {
      "inputs": [],
      "name": "owner",
      "outputs": [
        {
          "internalType": "address",
          "name": "",
          "type": "address"
        }
      ],
      "stateMutability": "view",
      "type": "function"
    },
    {
      "inputs": [
        {
          "internalType": "address",
          "name": "_arbitrator",
          "type": "address"
        }
      ],
      "name": "removeArbitrator",
      "outputs": [],
      "stateMutability": "nonpayable",
      "type": "function"
    },
    {
      "inputs": [
        {
          "internalType": "address[]",
          "name": "_arbitrators",
          "type": "address[]"
        }
      ],
      "name": "removeArbitrators",
      "outputs": [],
      "stateMutability": "nonpayable",
      "type": "function"
    },
    {
      "inputs": [],
      "name": "renounceOwnership",
      "outputs": [],
      "stateMutability": "nonpayable",
      "type": "function"
    },
    {
      "inputs": [
        {
          "internalType": "address",
          "name": "newOwner",
          "type": "address"
        }
      ],
      "name": "transferOwnership",
      "outputs": [],
      "stateMutability": "nonpayable",
      "type": "function"
    }
  ],
  "bytecode": "0x60808060405234610155573315610142575f8054336001600160a01b0319821681178355916001600160a01b03909116907f8be0079c531659141344cd1fd0a4f28419497f9722a3daafe3b4186f6b6457e09080a3335f52600160205260405f20600160ff198254161790556002546801000000000000000081101561012e57600181018060025581101561011a5760025f527f405787fa12a823e0f2b7631cc41b3ba8828b3321ca811111fa75cd3aa3bb5ace0180546001600160a01b031916331790556003545f19811461010657600101600355337ffc4dfef69004b5e3aba1eb4a8b1e53b893418fda232d9f60574a6c62f30c449d5f80a2610929908161015a8239f35b634e487b7160e01b5f52601160045260245ffd5b634e487b7160e01b5f52603260045260245ffd5b634e487b7160e01b5f52604160045260245ffd5b631e4fbdf760e01b5f525f60045260245ffd5b5f80fdfe60806040526004361015610011575f80fd5b5f3560e01c806301fabd751461045157806319ef1591146103ce578063428ac57f146103b1578063715018a61461035a57806372e7fe4414610301578063894c3b1f146102105780638da5cb5b146101e9578063973ad270146101a25780639f6bd2a914610161578063a23ae2031461011f5763f2fde38b14610092575f80fd5b3461011b57602036600319011261011b576004356001600160a01b0381169081900361011b576100c0610672565b8015610108575f80546001600160a01b03198116831782556001600160a01b0316907f8be0079c531659141344cd1fd0a4f28419497f9722a3daafe3b4186f6b6457e09080a3005b631e4fbdf760e01b5f525f60045260245ffd5b5f80fd5b3461011b57602036600319011261011b5760043560025481101561011b576101486020916104fa565b905460405160039290921b1c6001600160a01b03168152f35b3461011b57602036600319011261011b576004356001600160a01b0381169081900361011b575f526001602052602060ff60405f2054166040519015158152f35b3461011b57602036600319011261011b576004356001600160a01b038116810361011b576101d7906101d2610672565b610750565b6101e760016003541615156105b6565b005b3461011b575f36600319011261011b575f546040516001600160a01b039091168152602090f35b3461011b575f36600319011261011b576040518060206002549182815201809160025f527f405787fa12a823e0f2b7631cc41b3ba8828b3321ca811111fa75cd3aa3bb5ace905f5b8181106102e257505050829003601f01601f191682019167ffffffffffffffff8311818410176102ce5790829182604052602083019060208452518091526040830191905f5b8181106102ac575050500390f35b82516001600160a01b031684528594506020938401939092019160010161029e565b634e487b7160e01b5f52604160045260245ffd5b82546001600160a01b0316845260209093019260019283019201610258565b3461011b5761030f366104a6565b610317610672565b610322811515610602565b5f5b81811061033b576101e760016003541615156105b6565b806103546101d261034f600194868861064e565b61065e565b01610324565b3461011b575f36600319011261011b57610372610672565b5f80546001600160a01b0319811682556001600160a01b03167f8be0079c531659141344cd1fd0a4f28419497f9722a3daafe3b4186f6b6457e08280a3005b3461011b575f36600319011261011b576020600354604051908152f35b3461011b576103dc366104a6565b6103e4610672565b6103ef811515610602565b5f5b818110610408576101e760016003541615156105b6565b8061044b61041c61034f600194868861064e565b838060a01b03811661042f811515610526565b5f528360205261044660ff60405f20541615610572565b610698565b016103f1565b3461011b57602036600319011261011b576004356001600160a01b0381169081810361011b576101d791610483610672565b61048e811515610526565b5f52600160205261044660ff60405f20541615610572565b90602060031983011261011b5760043567ffffffffffffffff811161011b578260238201121561011b5780600401359267ffffffffffffffff841161011b5760248460051b8301011161011b576024019190565b6002548110156105125760025f5260205f2001905f90565b634e487b7160e01b5f52603260045260245ffd5b1561052d57565b60405162461bcd60e51b815260206004820152601a60248201527f496e76616c69642061726269747261746f7220616464726573730000000000006044820152606490fd5b1561057957565b60405162461bcd60e51b815260206004820152601560248201527420b63932b0b23c9030b71030b93134ba3930ba37b960591b6044820152606490fd5b156105bd57565b60405162461bcd60e51b815260206004820152601c60248201527f41726269747261746f7220636f756e74206d757374206265206f6464000000006044820152606490fd5b1561060957565b60405162461bcd60e51b815260206004820152601760248201527f4e6f2061726269747261746f72732070726f76696465640000000000000000006044820152606490fd5b91908110156105125760051b0190565b356001600160a01b038116810361011b5790565b5f546001600160a01b0316330361068557565b63118cdaa760e01b5f523360045260245ffd5b60018060a01b03811690815f52600160205260405f20600160ff1982541617905560025490680100000000000000008210156102ce576106e182600161070594016002556104fa565b81546001600160a01b0393841660039290921b91821b9390911b1916919091179055565b6003545f19811461073c576001016003557ffc4dfef69004b5e3aba1eb4a8b1e53b893418fda232d9f60574a6c62f30c449d5f80a2565b634e487b7160e01b5f52601160045260245ffd5b6001600160a01b03165f8181526001602052604090205460ff16156108ba576001600354111561087557805f52600160205260405f2060ff198154169055600354801561073c575f19016003555f5b600254908181101561086e57826107b5826104fa565b905460039190911b1c6001600160a01b0316146107d657600191500161079f565b5f19820191821161073c576106e16107f0610808936104fa565b905460039190911b1c6001600160a01b0316916104fa565b600254801561085a575f190161081d816104fa565b81549060018060a01b039060031b1b191690556002555b7f715484adb5bc9cc29af577725dbf8486d0b82eca3ba79f65846e92ff38ef32b55f80a2565b634e487b7160e01b5f52603160045260245ffd5b5050610834565b60405162461bcd60e51b815260206004820152601d60248201527f43616e6e6f742072656d6f7665206c6173742061726269747261746f720000006044820152606490fd5b60405162461bcd60e51b81526020600482015260116024820152702737ba1030b71030b93134ba3930ba37b960791b6044820152606490fdfea26469706673582212201a9da1e81f8185fc240d643c172f18ec65e502159a5c5b71bcd3cb59baa6b8d064736f6c634300081c0033",
  "linkReferences": {},
  "deployedLinkReferences": {}
}