{
  "_format": "hh-sol-artifact-1",
  "contractName": "BridgeAdapter",
  "sourceName": "contracts/BridgeAdapter.sol",
  "abi": [
    {
      "inputs": [
        {
          "internalType": "address",
          "name": "_waltBridge",
          "type": "address"
        },
        {
          "internalType": "address",
          "name": "_complianceManager",
          "type": "address"
        }
      ],
      "stateMutability": "nonpayable",
      "type": "constructor"
    },
    {
      "inputs": [
        {
          "internalType": "address",
          "name": "owner",
          "type": "address"
        }
      ],
      "name": "OwnableInvalidOwner",
      "type": "error"
    },
    {
      "inputs": [
        {
          "internalType": "address",
          "name": "account",
          "type": "address"
        }
      ],
      "name": "OwnableUnauthorizedAccount",
      "type": "error"
    },
    {
      "inputs": [],
      "name": "ReentrancyGuardReentrantCall",
      "type": "error"
    },
    {
      "inputs": [
        {
          "internalType": "address",
          "name": "token",
          "type": "address"
        }
      ],
      "name": "SafeERC20FailedOperation",
      "type": "error"
    },
    {
      "anonymous": false,
      "inputs": [
        {
          "indexed": true,
          "internalType": "bytes32",
          "name": "lockId",
          "type": "bytes32"
        },
        {
          "indexed": false,
          "internalType": "address",
          "name": "token",
          "type": "address"
        },
        {
          "indexed": false,
          "internalType": "uint256",
          "name": "amount",
          "type": "uint256"
        },
        {
          "indexed": false,
          "internalType": "address",
          "name": "recipient",
          "type": "address"
        },
        {
          "indexed": false,
          "internalType": "bytes32",
          "name": "destinationChain",
          "type": "bytes32"
        }
      ],
      "name": "AssetBridged",
      "type": "event"
    },
    {
      "anonymous": false,
      "inputs": [
        {
          "indexed": true,
          "internalType": "bytes32",
          "name": "lockId",
          "type": "bytes32"
        },
        {
          "indexed": false,
          "internalType": "address",
          "name": "token",
          "type": "address"
        },
        {
          "indexed": false,
          "internalType": "uint256",
          "name": "amount",
          "type": "uint256"
        },
        {
          "indexed": false,
          "internalType": "address",
          "name": "owner",
          "type": "address"
        },
        {
          "indexed": false,
          "internalType": "bytes32",
          "name": "destinationChain",
          "type": "bytes32"
        }
      ],
      "name": "AssetLocked",
      "type": "event"
    },
    {
      "anonymous": false,
      "inputs": [
        {
          "indexed": true,
          "internalType": "bytes32",
          "name": "lockId",
          "type": "bytes32"
        },
        {
          "indexed": false,
          "internalType": "address",
          "name": "token",
          "type": "address"
        },
        {
          "indexed": false,
          "internalType": "uint256",
          "name": "amount",
          "type": "uint256"
        },
        {
          "indexed": false,
          "internalType": "address",
          "name": "recipient",
          "type": "address"
        },
        {
          "indexed": false,
          "internalType": "bytes32",
          "name": "sourceChain",
          "type": "bytes32"
        }
      ],
      "name": "AssetReceived",
      "type": "event"
    },
    {
      "anonymous": false,
      "inputs": [
        {
          "indexed": true,
          "internalType": "bytes32",
          "name": "lockId",
          "type": "bytes32"
        },
        {
          "indexed": false,
          "internalType": "address",
          "name": "token",
          "type": "address"
        },
        {
          "indexed": false,
          "internalType": "uint256",
          "name": "tokenId",
          "type": "uint256"
        },
        {
          "indexed": false,
          "internalType": "uint256",
          "name": "amount",
          "type": "uint256"
        },
        {
          "indexed": false,
          "internalType": "address",
          "name": "recipient",
          "type": "address"
        },
        {
          "indexed": false,
          "internalType": "bytes32",
          "name": "destinationChain",
          "type": "bytes32"
        }
      ],
      "name": "ERC1155AssetBridged",
      "type": "event"
    },
    {
      "anonymous": false,
      "inputs": [
        {
          "indexed": true,
          "internalType": "bytes32",
          "name": "lockId",
          "type": "bytes32"
        },
        {
          "indexed": false,
          "internalType": "address",
          "name": "token",
          "type": "address"
        },
        {
          "indexed": false,
          "internalType": "uint256",
          "name": "tokenId",
          "type": "uint256"
        },
        {
          "indexed": false,
          "internalType": "uint256",
          "name": "amount",
          "type": "uint256"
        },
        {
          "indexed": false,
          "internalType": "address",
          "name": "owner",
          "type": "address"
        },
        {
          "indexed": false,
          "internalType": "bytes32",
          "name": "destinationChain",
          "type": "bytes32"
        }
      ],
      "name": "ERC1155AssetLocked",
      "type": "event"
    },
    {
      "anonymous": false,
      "inputs": [
        {
          "indexed": true,
          "internalType": "bytes32",
          "name": "lockId",
          "type": "bytes32"
        },
        {
          "indexed": false,
          "internalType": "address",
          "name": "token",
          "type": "address"
        },
        {
          "indexed": false,
          "internalType": "uint256",
          "name": "tokenId",
          "type": "uint256"
        },
        {
          "indexed": false,
          "internalType": "uint256",
          "name": "amount",
          "type": "uint256"
        },
        {
          "indexed": false,
          "internalType": "address",
          "name": "recipient",
          "type": "address"
        },
        {
          "indexed": false,
          "internalType": "bytes32",
          "name": "sourceChain",
          "type": "bytes32"
        }
      ],
      "name": "ERC1155AssetReceived",
      "type": "event"
    },
    {
      "anonymous": false,
      "inputs": [
        {
          "indexed": true,
          "internalType": "address",
          "name": "previousOwner",
          "type": "address"
        },
        {
          "indexed": true,
          "internalType": "address",
          "name": "newOwner",
          "type": "address"
        }
      ],
      "name": "OwnershipTransferred",
      "type": "event"
    },
    {
      "inputs": [],
      "name": "FINOVATE_CHAIN",
      "outputs": [
        {
          "internalType": "bytes32",
          "name": "",
          "type": "bytes32"
        }
      ],
      "stateMutability": "view",
      "type": "function"
    },
    {
      "inputs": [],
      "name": "KATANA_CHAIN",
      "outputs": [
        {
          "internalType": "bytes32",
          "name": "",
          "type": "bytes32"
        }
      ],
      "stateMutability": "view",
      "type": "function"
    },
    {
      "inputs": [],
      "name": "POLYGON_POS_CHAIN",
      "outputs": [
        {
          "internalType": "bytes32",
          "name": "",
          "type": "bytes32"
        }
      ],
      "stateMutability": "view",
      "type": "function"
    },
    {
      "inputs": [],
      "name": "POLYGON_ZKEVM_CHAIN",
      "outputs": [
        {
          "internalType": "bytes32",
          "name": "",
          "type": "bytes32"
        }
      ],
      "stateMutability": "view",
      "type": "function"
    },
    {
      "inputs": [],
      "name": "aggLayer",
      "outputs": [
        {
          "internalType": "contract IAggLayer",
          "name": "",
          "type": "address"
        }
      ],
      "stateMutability": "view",
      "type": "function"
    },
    {
      "inputs": [
        {
          "internalType": "address",
          "name": "token",
          "type": "address"
        },
        {
          "internalType": "uint256",
          "name": "tokenId",
          "type": "uint256"
        },
        {
          "internalType": "uint256",
          "name": "amount",
          "type": "uint256"
        },
        {
          "internalType": "bytes32",
          "name": "destinationChain",
          "type": "bytes32"
        },
        {
          "internalType": "address",
          "name": "destinationContract",
          "type": "address"
        },
        {
          "internalType": "address",
          "name": "recipient",
          "type": "address"
        }
      ],
      "name": "aggLayerTransferERC1155",
      "outputs": [],
      "stateMutability": "nonpayable",
      "type": "function"
    },
    {
      "inputs": [
        {
          "internalType": "address",
          "name": "token",
          "type": "address"
        },
        {
          "internalType": "uint256",
          "name": "amount",
          "type": "uint256"
        },
        {
          "internalType": "bytes32",
          "name": "destinationChain",
          "type": "bytes32"
        },
        {
          "internalType": "address",
          "name": "destinationContract",
          "type": "address"
        },
        {
          "internalType": "address",
          "name": "recipient",
          "type": "address"
        }
      ],
      "name": "aggLayerTransferERC20",
      "outputs": [],
      "stateMutability": "nonpayable",
      "type": "function"
    },
    {
      "inputs": [
        {
          "internalType": "bytes32",
          "name": "lockId",
          "type": "bytes32"
        },
        {
          "internalType": "address",
          "name": "recipient",
          "type": "address"
        }
      ],
      "name": "bridgeAsset",
      "outputs": [],
      "stateMutability": "nonpayable",
      "type": "function"
    },
    {
      "inputs": [
        {
          "internalType": "bytes32",
          "name": "lockId",
          "type": "bytes32"
        },
        {
          "internalType": "address",
          "name": "recipient",
          "type": "address"
        }
      ],
      "name": "bridgeERC1155Asset",
      "outputs": [],
      "stateMutability": "nonpayable",
      "type": "function"
    },
    {
      "inputs": [],
      "name": "complianceManager",
      "outputs": [
        {
          "internalType": "contract ComplianceManager",
          "name": "",
          "type": "address"
        }
      ],
      "stateMutability": "view",
      "type": "function"
    },
    {
      "inputs": [
        {
          "internalType": "address",
          "name": "token",
          "type": "address"
        },
        {
          "internalType": "uint256",
          "name": "amount",
          "type": "uint256"
        }
      ],
      "name": "emergencyWithdraw",
      "outputs": [],
      "stateMutability": "nonpayable",
      "type": "function"
    },
    {
      "inputs": [
        {
          "internalType": "address",
          "name": "token",
          "type": "address"
        },
        {
          "internalType": "uint256",
          "name": "tokenId",
          "type": "uint256"
        },
        {
          "internalType": "uint256",
          "name": "amount",
          "type": "uint256"
        }
      ],
      "name": "emergencyWithdrawERC1155",
      "outputs": [],
      "stateMutability": "nonpayable",
      "type": "function"
    },
    {
      "inputs": [
        {
          "internalType": "address",
          "name": "token",
          "type": "address"
        },
        {
          "internalType": "uint256",
          "name": "tokenId",
          "type": "uint256"
        },
        {
          "internalType": "uint256",
          "name": "amount",
          "type": "uint256"
        },
        {
          "internalType": "bytes32",
          "name": "destinationChain",
          "type": "bytes32"
        }
      ],
      "name": "lockERC1155ForBridge",
      "outputs": [
        {
          "internalType": "bytes32",
          "name": "",
          "type": "bytes32"
        }
      ],
      "stateMutability": "nonpayable",
      "type": "function"
    },
    {
      "inputs": [
        {
          "internalType": "address",
          "name": "token",
          "type": "address"
        },
        {
          "internalType": "uint256",
          "name": "amount",
          "type": "uint256"
        },
        {
          "internalType": "bytes32",
          "name": "destinationChain",
          "type": "bytes32"
        }
      ],
      "name": "lockForBridge",
      "outputs": [
        {
          "internalType": "bytes32",
          "name": "",
          "type": "bytes32"
        }
      ],
      "stateMutability": "nonpayable",
      "type": "function"
    },
    {
      "inputs": [
        {
          "internalType": "bytes32",
          "name": "",
          "type": "bytes32"
        }
      ],
      "name": "lockedAssets",
      "outputs": [
        {
          "internalType": "address",
          "name": "token",
          "type": "address"
        },
        {
          "internalType": "uint256",
          "name": "amount",
          "type": "uint256"
        },
        {
          "internalType": "address",
          "name": "owner",
          "type": "address"
        },
        {
          "internalType": "uint256",
          "name": "timestamp",
          "type": "uint256"
        }
      ],
      "stateMutability": "view",
      "type": "function"
    },
    {
      "inputs": [
        {
          "internalType": "bytes32",
          "name": "",
          "type": "bytes32"
        }
      ],
      "name": "lockedERC1155Assets",
      "outputs": [
        {
          "internalType": "address",
          "name": "token",
          "type": "address"
        },
        {
          "internalType": "uint256",
          "name": "tokenId",
          "type": "uint256"
        },
        {
          "internalType": "uint256",
          "name": "amount",
          "type": "uint256"
        },
        {
          "internalType": "address",
          "name": "owner",
          "type": "address"
        },
        {
          "internalType": "uint256",
          "name": "timestamp",
          "type": "uint256"
        }
      ],
      "stateMutability": "view",
      "type": "function"
    },
    {
      "inputs": [
        {
          "internalType": "address",
          "name": "operator",
          "type": "address"
        },
        {
          "internalType": "address",
          "name": "from",
          "type": "address"
        },
        {
          "internalType": "uint256[]",
          "name": "ids",
          "type": "uint256[]"
        },
        {
          "internalType": "uint256[]",
          "name": "values",
          "type": "uint256[]"
        },
        {
          "internalType": "bytes",
          "name": "data",
          "type": "bytes"
        }
      ],
      "name": "onERC1155BatchReceived",
      "outputs": [
        {
          "internalType": "bytes4",
          "name": "",
          "type": "bytes4"
        }
      ],
      "stateMutability": "pure",
      "type": "function"
    },
    {
      "inputs": [
        {
          "internalType": "address",
          "name": "operator",
          "type": "address"
        },
        {
          "internalType": "address",
          "name": "from",
          "type": "address"
        },
        {
          "internalType": "uint256",
          "name": "id",
          "type": "uint256"
        },
        {
          "internalType": "uint256",
          "name": "value",
          "type": "uint256"
        },
        {
          "internalType": "bytes",
          "name": "data",
          "type": "bytes"
        }
      ],
      "name": "onERC1155Received",
      "outputs": [
        {
          "internalType": "bytes4",
          "name": "",
          "type": "bytes4"
        }
      ],
      "stateMutability": "pure",
      "type": "function"
    },
    {
      "inputs": [],
      "name": "owner",
      "outputs": [
        {
          "internalType": "address",
          "name": "",
          "type": "address"
        }
      ],
      "stateMutability": "view",
      "type": "function"
    },
    {
      "inputs": [
        {
          "internalType": "bytes32",
          "name": "sourceChain",
          "type": "bytes32"
        },
        {
          "internalType": "address",
          "name": "sourceContract",
          "type": "address"
        },
        {
          "internalType": "bytes",
          "name": "data",
          "type": "bytes"
        }
      ],
      "name": "receiveAggLayerMessageERC1155",
      "outputs": [],
      "stateMutability": "nonpayable",
      "type": "function"
    },
    {
      "inputs": [
        {
          "internalType": "bytes32",
          "name": "sourceChain",
          "type": "bytes32"
        },
        {
          "internalType": "address",
          "name": "sourceContract",
          "type": "address"
        },
        {
          "internalType": "bytes",
          "name": "data",
          "type": "bytes"
        }
      ],
      "name": "receiveAggLayerMessageERC20",
      "outputs": [],
      "stateMutability": "nonpayable",
      "type": "function"
    },
    {
      "inputs": [
        {
          "internalType": "address",
          "name": "token",
          "type": "address"
        },
        {
          "internalType": "uint256",
          "name": "tokenId",
          "type": "uint256"
        },
        {
          "internalType": "uint256",
          "name": "amount",
          "type": "uint256"
        },
        {
          "internalType": "address",
          "name": "recipient",
          "type": "address"
        },
        {
          "internalType": "bytes32",
          "name": "sourceChain",
          "type": "bytes32"
        }
      ],
      "name": "receiveERC1155FromBridge",
      "outputs": [],
      "stateMutability": "nonpayable",
      "type": "function"
    },
    {
      "inputs": [
        {
          "internalType": "address",
          "name": "token",
          "type": "address"
        },
        {
          "internalType": "uint256",
          "name": "amount",
          "type": "uint256"
        },
        {
          "internalType": "address",
          "name": "recipient",
          "type": "address"
        },
        {
          "internalType": "bytes32",
          "name": "sourceChain",
          "type": "bytes32"
        }
      ],
      "name": "receiveFromBridge",
      "outputs": [],
      "stateMutability": "nonpayable",
      "type": "function"
    },
    {
      "inputs": [],
      "name": "renounceOwnership",
      "outputs": [],
      "stateMutability": "nonpayable",
      "type": "function"
    },
    {
      "inputs": [
        {
          "internalType": "bytes4",
          "name": "interfaceId",
          "type": "bytes4"
        }
      ],
      "name": "supportsInterface",
      "outputs": [
        {
          "internalType": "bool",
          "name": "",
          "type": "bool"
        }
      ],
      "stateMutability": "view",
      "type": "function"
    },
    {
      "inputs": [
        {
          "internalType": "address",
          "name": "newOwner",
          "type": "address"
        }
      ],
      "name": "transferOwnership",
      "outputs": [],
      "stateMutability": "nonpayable",
      "type": "function"
    },
    {
      "inputs": [
        {
          "internalType": "address",
          "name": "_aggLayer",
          "type": "address"
        }
      ],
      "name": "updateAggLayer",
      "outputs": [],
      "stateMutability": "nonpayable",
      "type": "function"
    },
    {
      "inputs": [
        {
          "internalType": "address",
          "name": "_waltBridge",
          "type": "address"
        }
      ],
      "name": "updateWaltBridge",
      "outputs": [],
      "stateMutability": "nonpayable",
      "type": "function"
    },
    {
      "inputs": [],
      "name": "waltBridge",
      "outputs": [
        {
          "internalType": "contract IWaltBridge",
          "name": "",
          "type": "address"
        }
      ],
      "stateMutability": "view",
      "type": "function"
    }
  ],
  "bytecode": "0x6080346100f257601f6120d838819003918201601f19168301916001600160401b038311848410176100f65780849260409485528339810103126100f257610052602061004b8361010a565b920161010a565b33156100df575f8054336001600160a01b0319821681178355604051949290916001600160a01b0316907f8be0079c531659141344cd1fd0a4f28419497f9722a3daafe3b4186f6b6457e09080a360018055600280546001600160a01b039283166001600160a01b03199182161790915560048054939092169216919091179055611fb9908161011f8239f35b631e4fbdf760e01b5f525f60045260245ffd5b5f80fd5b634e487b7160e01b5f52604160045260245ffd5b51906001600160a01b03821682036100f25756fe60806040526004361015610011575f80fd5b5f5f3560e01c806301864eb2146118a757806301ffc9a71461186d5780630de939e71461166b5780630e6de986146114725780631f7103851461137a5780632b9c56d21461114357806330a46a501461111a57806346139f5614610f155780634d9c18bb14610d8d578063500a8d6914610bd257806367b5c71214610b975780636b19971614610b6e578063715018a614610b145780637471ec5714610ad95780637e5e2a7d146108e75780638da5cb5b146108c05780638e1872891461088057806395ccea671461084057806397717b89146108185780639f6d949a1461078b578063a0593e0e1461059f578063bc197c8114610503578063be1f2f091461049e578063c79dc1ec14610441578063f23a6e61146103e5578063f2fde38b1461035f578063f9840c6214610324578063faa9c46a146101845763ff7bce2314610159575f80fd5b346101815780600319360112610181576004546040516001600160a01b039091168152602090f35b80fd5b503461018157608061019536611984565b819492506101ae60018060a01b03600354163314611d2c565b81010312610320576101bf82611942565b6020830135906101d6606060408601359501611942565b60048054604051632a5bb1b760e11b81526001600160a01b0393841692810183905293831693919260209183916024918391165afa8015610315576102229188916102e6575b50611d71565b813b156102d757604051637921219560e11b8152869081818061024b8a89883060048601611c85565b038183885af180156102db576102c2575b50507fa4d2cc0842c7917bde5c989e1237b137de43babb36b3874f91df1367fbf2fc43936102bc9160405160208101906102ac8161029e42868d8c8c89611cbd565b03601f198101835282611a48565b5190209660405195869586611cfa565b0390a280f35b816102cc91611a48565b6102d757855f61025c565b8580fd5b6040513d84823e3d90fd5b610308915060203d60201161030e575b6103008183611a48565b810190611a6a565b5f61021c565b503d6102f6565b6040513d89823e3d90fd5b8280fd5b503461018157806003193601126101815760206040517fc87f1b21696ef0d4e19cdc6ef3b3b53a507c0fc73edc6878675e8b4d703bffb78152f35b5034610181576020366003190112610181576103796118ea565b610381611e3f565b6001600160a01b031680156103d15781546001600160a01b03198116821783556001600160a01b03167f8be0079c531659141344cd1fd0a4f28419497f9722a3daafe3b4186f6b6457e08380a380f35b631e4fbdf760e01b82526004829052602482fd5b50346101815760a0366003190112610181576103ff6118ea565b5061040861192c565b5060843567ffffffffffffffff811161043d57610429903690600401611956565b505060405163f23a6e6160e01b8152602090f35b5080fd5b5034610181576020366003190112610181576040608091600435815260056020522060018060a01b0381541690600181015490600360018060a01b0360028301541691015491604051938452602084015260408301526060820152f35b503461018157602036600319011261018157604060a0916004358152600660205220600180831b038154169060018101549060028101546004600180871b03600384015416920154926040519485526020850152604084015260608301526080820152f35b50346101815760a03660031901126101815761051d6118ea565b5061052661192c565b5060443567ffffffffffffffff811161043d576105479036906004016119cb565b505060643567ffffffffffffffff811161043d576105699036906004016119cb565b505060843567ffffffffffffffff811161043d5761058b903690600401611956565b505060405163bc197c8160e01b8152602090f35b5034610181576080366003190112610181576105b96118ea565b6044356001600160a01b038116916024359083830361078757606435926105de611e3f565b600480546040516372c1cc1b60e11b81529182018790529094906001600160a01b0316602086602481845afa90811561077c576106286020926024988b9161075f575b5015611a82565b60405196878092632a5bb1b760e11b82528a60048301525afa9182156103155761067e6102bc937fd8b91a9c331ad85e205da86637bfbc8878f5f0ff9a8afcd0a71ef965b46c59ea978a91610740575b50611abf565b6106965f516020611f645f395f51905f528314611dbd565b61073485828a60405160208101906106b68161029e8c8789429288611bd6565b5190209a60038c604051926106ca84611a2c565b6001600160a01b038c811680865260208087018a815260408089019586524260608a01908152968a5260059092529720955186546001600160a01b031990811691841691909117875596516001870155915160028601805490971691161790945551910155611ed0565b60405194859485611c0e565b610759915060203d60201161030e576103008183611a48565b5f610678565b6107769150843d861161030e576103008183611a48565b5f610621565b6040513d8a823e3d90fd5b8480fd5b503461018157606036600319011261018157806107a66118ea565b6107ae611e3f565b81546001600160a01b039081169116803b1561081457604051637921219560e11b815291839183918290849082906107f29060443590602435903060048601611c85565b03925af180156102db576108035750f35b8161080d91611a48565b6101815780f35b5050fd5b503461018157806003193601126101815760206040515f516020611f645f395f51905f528152f35b50346101815760403660031901126101815761087d61085d6118ea565b610865611e3f565b8254602435916001600160a01b039182169116611ed0565b80f35b50346101815760203660031901126101815761089a6118ea565b6108a2611e3f565b60018060a01b03166001600160601b0360a01b600354161760035580f35b5034610181578060031936011261018157546040516001600160a01b039091168152602090f35b5034610181576060366003190112610181576109016118ea565b60243560443560018060a01b0360045416604051906372c1cc1b60e11b8252336004830152602082602481845afa908115610ace5761094c602092602494899161075f575015611a82565b604051632a5bb1b760e11b815233600482015292839182905afa908115610ac35792610a9d7f22d8019deb88c4e13567efcda5f3dc566821abe05f76c432b807c8093e8ef80e936109aa60039794899760209a91610aac5750611abf565b6109b2611e65565b6109ca5f516020611f645f395f51905f528214611c39565b6109d5831515611b4a565b6001600160a01b0384166109eb84303384611e85565b60405189810190610a038161029e42338a8c88611bd6565b51902097889760405192610a1684611a2c565b83528a83018681526040840190338252604060608601934285528c815260058f52209460018060a01b039060018060a01b03905116166001600160601b0360a01b86541617855551600185015560018060a01b03905116600284019060018060a01b03166001600160601b0360a01b82541617905551910155604051938493339185611c0e565b0390a260018055604051908152f35b61075991508a3d8c1161030e576103008183611a48565b6040513d87823e3d90fd5b6040513d88823e3d90fd5b503461018157806003193601126101815760206040517f0db4352a89aa75f9d11ac30e122fe9730a761c955523552119c16838f3c0fda58152f35b5034610181578060031936011261018157610b2d611e3f565b80546001600160a01b03198116825581906001600160a01b03167f8be0079c531659141344cd1fd0a4f28419497f9722a3daafe3b4186f6b6457e08280a380f35b50346101815780600319360112610181576002546040516001600160a01b039091168152602090f35b503461018157806003193601126101815760206040517fe8fe57585ca8b7ec07325cb5cdc4701633418dd473836621b010ece196797f208152f35b503461018157604036600319011261018157600435610bef61192c565b610bf7611e3f565b81835260066020526040832060405190610c10826119fc565b80546001600160a01b039081168352600182015460208401908152600283015460408501908152600384015490921660608501819052600490930154608085015291610c5d901515611e00565b600254835183518351966001600160a01b0393841694938a9316853b15610d89578360a4926040519a8b95869463058d6a3560e51b86526004860152602485015260448401525f516020611f645f395f51905f52606484015260018060a01b0316968760848401525af193878515610d7d578795610d62575b505192519051604080516001600160a01b03909516855260208501929092529083015260608201525f516020611f645f395f51905f5260808201529091507ffd201cc89e1a0b1653793b7605fcb9a8fcd49af126460d42c38fe802497dc2129060a090a28152600660205280600460408220828155826001820155826002820155826003820155015580f35b610d70919550809296611a48565b6102d75783859387610cd6565b604051903d90823e3d90fd5b8380fd5b503461018157604036600319011261018157600435610daa61192c565b610db2611e3f565b81835260056020526040832060405190610dcb82611a2c565b80546001600160a01b039081168352600182015460208401908152600283015490911660408401819052600390920154606084015290610e0c901515611e00565b600254825182516001600160a01b0392831692889216833b156103205760849083604051988994859363c2e4aacb60e01b8552600485015260248401525f516020611f645f395f51905f52604484015260018060a01b0316958660648401525af192868415610d7d578694610efa575b50519151604080516001600160a01b03909416845260208401919091528201525f516020611f645f395f51905f5260608201529091507f54737a830333f03c317505585f2490ede522dcc55e797107c6523cce94869a7090608090a28152600560205280600360408220828155826001820155826002820155015580f35b610f08919450809295611a48565b6107875782849286610e7c565b50346101815760a036600319011261018157610f2f6118ea565b60443590602435610f3e611900565b91608435610f4a611e3f565b600480546040516372c1cc1b60e11b81526001600160a01b03878116938201849052929792909116602082602481845afa90811561110f57610f986020926024948c9161075f575015611a82565b60405192838092632a5bb1b760e11b82528b60048301525afa801561077c57610fc79189916107405750611abf565b610fdf5f516020611f645f395f51905f528314611dbd565b866040516020810190610ffa8161029e428b888c8c89611cbd565b5190209660405161100a816119fc565b6001600160a01b0386811680835260208084018a815260408086018981526060870197885242608088019081528f8a526006909452908820955186549086166001600160a01b0319918216178755915160018701555160028601559451600385018054919094169516949094179091559151600490910155803b1561043d57604051637921219560e11b815290829082908183816110ae898d8f3060048601611c85565b03925af180156102db576110f2575b5050907fa4d2cc0842c7917bde5c989e1237b137de43babb36b3874f91df1367fbf2fc43946102bc9260405195869586611cfa565b816110ff91949394611a48565b61110b5790865f6110bd565b8680fd5b6040513d8b823e3d90fd5b50346101815780600319360112610181576003546040516001600160a01b039091168152602090f35b50346101815760c03660031901126101815761115d6118ea565b602435906044359160643591611171611916565b60a4359086906001600160a01b0383169081840361032057600480546040516372c1cc1b60e11b815233928101929092526001600160a01b0316602082602481845afa908115610ac3576111d1602092602494889161075f575015611a82565b604051632a5bb1b760e11b815233600482015292839182905afa801561136f576112019185916107405750611abf565b611209611e65565b6112357fe8fe57585ca8b7ec07325cb5cdc4701633418dd473836621b010ece196797f20881415611afe565b611240881515611b4a565b6001600160a01b03851691823b15610d8957604051637921219560e11b81528481806112728d8c303360048601611c85565b038183885af1908115610ac357859161135a575b50506040519260208401528660408401528860608401526080830152608082526112b160a083611a48565b6003546001600160a01b031691823b15610d89576112ea928492838a60405196879586948593631ffa155b60e11b855260048501611b96565b03925af180156102db57611345575b50507ffd201cc89e1a0b1653793b7605fcb9a8fcd49af126460d42c38fe802497dc2129361133b9160405160208101906102ac8161029e42338d8c8c89611cbd565b0390a26001805580f35b8161134f91611a48565b6102d757855f6112f9565b8161136491611a48565b610d8957835f611286565b6040513d86823e3d90fd5b503461018157606061138b36611984565b81939492506113a560018060a01b03600354163314611d2c565b8101031261032057806113b9602492611942565b6113ca604060208401359301611942565b60048054604051632a5bb1b760e11b81526001600160a01b0393841692810183905291969195938316939192602092879290918391165afa908115610ace5761143e6102bc927fd8b91a9c331ad85e205da86637bfbc8878f5f0ff9a8afcd0a71ef965b46c59ea9689916102e65750611d71565b611449848785611ed0565b60405160208101906114628161029e428b8a8a88611bd6565b5190209560405194859485611c0e565b50346101815760803660031901126101815761148c6118ea565b602435604435916064359060018060a01b0360045416604051906372c1cc1b60e11b8252336004830152602082602481845afa908115610315576114dc6020926024948a9161075f575015611a82565b604051632a5bb1b760e11b815233600482015292839182905afa8015610ace5761150c9187916107405750611abf565b611514611e65565b61152c5f516020611f645f395f51905f528314611c39565b611537841515611b4a565b6001600160a01b038116803b156102d757604051637921219560e11b81528681806115688989303360048601611c85565b038183865af1801561031557611656575b60206004887f22fab45cdb4cae2ba056a8f09c36dadebe8828f555807a0678617e5366964d208989610a9d8a8a8a6040518a8101906115c08161029e42338c8c8a89611cbd565b51902098898099604051936115d4856119fc565b84528c840188815260408086018b815233606088018181524260808a01908152968652600660205294839020975188546001600160a01b03199081166001600160a01b03928316178a55945160018a01559151600289015593516003880180549094169116179091559151929093019190915551958695919290919086611cfa565b611661878092611a48565b6102d7575f611579565b50346118695760a0366003190112611869576116856118ea565b6044359190602435611695611900565b9161169e611916565b600480546040516372c1cc1b60e11b815233928101929092529194916001600160a01b0316602082602481845afa90811561185e576116e96020926024945f9161075f575015611a82565b604051632a5bb1b760e11b815233600482015292839182905afa801561185e57611719915f916107405750611abf565b611721611e65565b61174d7fe8fe57585ca8b7ec07325cb5cdc4701633418dd473836621b010ece196797f20871415611afe565b611758831515611b4a565b6001600160a01b0382169061176f84303385611e85565b60405191602083015283604083015260018060a01b03851660608301526060825261179b608083611a48565b6003546001600160a01b031691823b15611869576117d4925f92838a60405196879586948593631ffa155b60e11b855260048501611b96565b03925af1801561185e57611824575b5061133b7f54737a830333f03c317505585f2490ede522dcc55e797107c6523cce94869a7093949560405160208101906114628161029e42338a8a88611bd6565b7f54737a830333f03c317505585f2490ede522dcc55e797107c6523cce94869a709394505f61185291611a48565b61133b5f9493506117e3565b6040513d5f823e3d90fd5b5f80fd5b346118695760203660031901126118695760043563ffffffff60e01b811680910361186957604051630271189760e51b9091148152602090f35b34611869576020366003190112611869576118c06118ea565b6118c8611e3f565b600280546001600160a01b0319166001600160a01b0392909216919091179055005b600435906001600160a01b038216820361186957565b606435906001600160a01b038216820361186957565b608435906001600160a01b038216820361186957565b602435906001600160a01b038216820361186957565b35906001600160a01b038216820361186957565b9181601f840112156118695782359167ffffffffffffffff8311611869576020838186019501011161186957565b606060031982011261186957600435916024356001600160a01b038116810361186957916044359067ffffffffffffffff8211611869576119c791600401611956565b9091565b9181601f840112156118695782359167ffffffffffffffff8311611869576020808501948460051b01011161186957565b60a0810190811067ffffffffffffffff821117611a1857604052565b634e487b7160e01b5f52604160045260245ffd5b6080810190811067ffffffffffffffff821117611a1857604052565b90601f8019910116810190811067ffffffffffffffff821117611a1857604052565b90816020910312611869575180151581036118695790565b15611a8957565b60405162461bcd60e51b815260206004820152600e60248201526d20b1b1b7bab73a10333937bd32b760911b6044820152606490fd5b15611ac657565b60405162461bcd60e51b815260206004820152601060248201526f12d650c81b9bdd081d995c9a599a595960821b6044820152606490fd5b15611b0557565b60405162461bcd60e51b815260206004820152601d60248201527f43616e6e6f74207472616e7366657220746f2073616d6520636861696e0000006044820152606490fd5b15611b5157565b60405162461bcd60e51b815260206004820152601760248201527f416d6f756e74206d75737420626520706f7369746976650000000000000000006044820152606490fd5b9192608093602092845260018060a01b031682840152606060408401528051918291826060860152018484015e5f828201840152601f01601f1916010190565b929091606894926001600160601b03199060601b16845260148401526001600160601b03199060601b16603483015260488201520190565b6001600160a01b03918216815260208101929092529091166040820152606081019190915260800190565b15611c4057565b60405162461bcd60e51b815260206004820152601960248201527f496e76616c69642064657374696e6174696f6e20636861696e000000000000006044820152606490fd5b6001600160a01b039182168152911660208201526040810191909152606081019190915260a0608082018190525f9082015260c00190565b939160889593916001600160601b03199060601b168552601485015260348401526001600160601b03199060601b16605483015260688201520190565b6001600160a01b0391821681526020810192909252604082019290925291166060820152608081019190915260a00190565b15611d3357565b60405162461bcd60e51b815260206004820152601660248201527513db9b1e481059d9d3185e595c8818d85b8818d85b1b60521b6044820152606490fd5b15611d7857565b60405162461bcd60e51b815260206004820152601a60248201527f526563697069656e74206e6f74204b59432076657269666965640000000000006044820152606490fd5b15611dc457565b60405162461bcd60e51b815260206004820152601460248201527324b73b30b634b21039b7bab931b29031b430b4b760611b6044820152606490fd5b15611e0757565b60405162461bcd60e51b815260206004820152601060248201526f105cdcd95d081b9bdd081b1bd8dad95960821b6044820152606490fd5b5f546001600160a01b03163303611e5257565b63118cdaa760e01b5f523360045260245ffd5b600260015414611e76576002600155565b633ee5aeb560e01b5f5260045ffd5b6040516323b872dd60e01b60208201526001600160a01b039283166024820152929091166044830152606480830193909352918152611ece91611ec9608483611a48565b611f0b565b565b60405163a9059cbb60e01b60208201526001600160a01b039092166024830152604480830193909352918152611ece91611ec9606483611a48565b905f602091828151910182855af11561185e575f513d611f5a57506001600160a01b0381163b155b611f3a5750565b635274afe760e01b5f9081526001600160a01b0391909116600452602490fd5b60011415611f3356fe98d35890f262f42e468663746e93596a5077f0e2571f072ea1905db676f8daafa2646970667358221220b80f5b042c9359e5904a45d4ab6093c28ba0306524d29f24b69e49cdacdbeee964736f6c634300081c0033",
  "linkReferences": {},
  "deployedLinkReferences": {}
}