{
  "_format": "hh-sol-artifact-1",
  "contractName": "EscrowContract",
  "sourceName": "contracts/EscrowContract.sol",
  "abi": [
    {
      "inputs": [
        {
          "internalType": "address",
          "name": "_trustedForwarder",
          "type": "address"
        },
        {
          "internalType": "address",
          "name": "_complianceManager",
          "type": "address"
        },
        {
          "internalType": "address",
          "name": "_arbitratorsRegistry",
          "type": "address"
        }
      ],
      "stateMutability": "nonpayable",
      "type": "constructor"
    },
    {
      "inputs": [],
      "name": "EnforcedPause",
      "type": "error"
    },
    {
      "inputs": [],
      "name": "ExpectedPause",
      "type": "error"
    },
    {
      "inputs": [],
      "name": "InvalidShortString",
      "type": "error"
    },
    {
      "inputs": [],
      "name": "ReentrancyGuardReentrantCall",
      "type": "error"
    },
    {
      "inputs": [
        {
          "internalType": "address",
          "name": "token",
          "type": "address"
        }
      ],
      "name": "SafeERC20FailedOperation",
      "type": "error"
    },
    {
      "inputs": [
        {
          "internalType": "string",
          "name": "str",
          "type": "string"
        }
      ],
      "name": "StringTooLong",
      "type": "error"
    },
    {
      "anonymous": false,
      "inputs": [
        {
          "indexed": true,
          "internalType": "bytes32",
          "name": "invoiceId",
          "type": "bytes32"
        },
        {
          "indexed": true,
          "internalType": "address",
          "name": "arbitrator",
          "type": "address"
        },
        {
          "indexed": false,
          "internalType": "bool",
          "name": "voteForBuyer",
          "type": "bool"
        }
      ],
      "name": "ArbitratorVoted",
      "type": "event"
    },
    {
      "anonymous": false,
      "inputs": [
        {
          "indexed": true,
          "internalType": "bytes32",
          "name": "invoiceId",
          "type": "bytes32"
        },
        {
          "indexed": false,
          "internalType": "address",
          "name": "buyer",
          "type": "address"
        },
        {
          "indexed": false,
          "internalType": "uint256",
          "name": "amount",
          "type": "uint256"
        }
      ],
      "name": "DepositConfirmed",
      "type": "event"
    },
    {
      "anonymous": false,
      "inputs": [
        {
          "indexed": true,
          "internalType": "bytes32",
          "name": "invoiceId",
          "type": "bytes32"
        },
        {
          "indexed": false,
          "internalType": "address",
          "name": "raisedBy",
          "type": "address"
        }
      ],
      "name": "DisputeRaised",
      "type": "event"
    },
    {
      "anonymous": false,
      "inputs": [
        {
          "indexed": true,
          "internalType": "bytes32",
          "name": "invoiceId",
          "type": "bytes32"
        },
        {
          "indexed": false,
          "internalType": "address",
          "name": "raisedBy",
          "type": "address"
        },
        {
          "indexed": false,
          "internalType": "uint256",
          "name": "arbitratorCount",
          "type": "uint256"
        }
      ],
      "name": "DisputeRaised",
      "type": "event"
    },
    {
      "anonymous": false,
      "inputs": [
        {
          "indexed": true,
          "internalType": "bytes32",
          "name": "invoiceId",
          "type": "bytes32"
        },
        {
          "indexed": false,
          "internalType": "address",
          "name": "resolver",
          "type": "address"
        },
        {
          "indexed": false,
          "internalType": "bool",
          "name": "sellerWins",
          "type": "bool"
        }
      ],
      "name": "DisputeResolved",
      "type": "event"
    },
    {
      "anonymous": false,
      "inputs": [
        {
          "indexed": true,
          "internalType": "bytes32",
          "name": "invoiceId",
          "type": "bytes32"
        },
        {
          "indexed": false,
          "internalType": "bool",
          "name": "sellerWins",
          "type": "bool"
        },
        {
          "indexed": false,
          "internalType": "uint256",
          "name": "votesForSeller",
          "type": "uint256"
        },
        {
          "indexed": false,
          "internalType": "uint256",
          "name": "votesForBuyer",
          "type": "uint256"
        }
      ],
      "name": "DisputeResolved",
      "type": "event"
    },
    {
      "anonymous": false,
      "inputs": [],
      "name": "EIP712DomainChanged",
      "type": "event"
    },
    {
      "anonymous": false,
      "inputs": [
        {
          "indexed": true,
          "internalType": "bytes32",
          "name": "invoiceId",
          "type": "bytes32"
        },
        {
          "indexed": false,
          "internalType": "address",
          "name": "seller",
          "type": "address"
        },
        {
          "indexed": false,
          "internalType": "address",
          "name": "buyer",
          "type": "address"
        },
        {
          "indexed": false,
          "internalType": "uint256",
          "name": "amount",
          "type": "uint256"
        }
      ],
      "name": "EscrowCreated",
      "type": "event"
    },
    {
      "anonymous": false,
      "inputs": [
        {
          "indexed": true,
          "internalType": "bytes32",
          "name": "invoiceId",
          "type": "bytes32"
        },
        {
          "indexed": false,
          "internalType": "uint256",
          "name": "amount",
          "type": "uint256"
        }
      ],
      "name": "EscrowReleased",
      "type": "event"
    },
    {
      "anonymous": false,
      "inputs": [
        {
          "indexed": true,
          "internalType": "bytes32",
          "name": "invoiceId",
          "type": "bytes32"
        },
        {
          "indexed": false,
          "internalType": "uint256",
          "name": "feeAmount",
          "type": "uint256"
        }
      ],
      "name": "FeeCollected",
      "type": "event"
    },
    {
      "anonymous": false,
      "inputs": [
        {
          "indexed": false,
          "internalType": "uint256",
          "name": "oldFee",
          "type": "uint256"
        },
        {
          "indexed": false,
          "internalType": "uint256",
          "name": "newFee",
          "type": "uint256"
        }
      ],
      "name": "FeePercentageUpdated",
      "type": "event"
    },
    {
      "anonymous": false,
      "inputs": [
        {
          "indexed": false,
          "internalType": "uint256",
          "name": "oldMinimum",
          "type": "uint256"
        },
        {
          "indexed": false,
          "internalType": "uint256",
          "name": "newMinimum",
          "type": "uint256"
        }
      ],
      "name": "MinimumEscrowAmountUpdated",
      "type": "event"
    },
    {
      "anonymous": false,
      "inputs": [
        {
          "indexed": false,
          "internalType": "address",
          "name": "account",
          "type": "address"
        }
      ],
      "name": "Paused",
      "type": "event"
    },
    {
      "anonymous": false,
      "inputs": [
        {
          "indexed": true,
          "internalType": "bytes32",
          "name": "invoiceId",
          "type": "bytes32"
        },
        {
          "indexed": true,
          "internalType": "address",
          "name": "admin",
          "type": "address"
        }
      ],
      "name": "SafeEscape",
      "type": "event"
    },
    {
      "anonymous": false,
      "inputs": [
        {
          "indexed": true,
          "internalType": "address",
          "name": "oldTreasury",
          "type": "address"
        },
        {
          "indexed": true,
          "internalType": "address",
          "name": "newTreasury",
          "type": "address"
        }
      ],
      "name": "TreasuryUpdated",
      "type": "event"
    },
    {
      "anonymous": false,
      "inputs": [
        {
          "indexed": false,
          "internalType": "address",
          "name": "account",
          "type": "address"
        }
      ],
      "name": "Unpaused",
      "type": "event"
    },
    {
      "inputs": [],
      "name": "admin",
      "outputs": [
        {
          "internalType": "address",
          "name": "",
          "type": "address"
        }
      ],
      "stateMutability": "view",
      "type": "function"
    },
    {
      "inputs": [],
      "name": "arbitratorsRegistry",
      "outputs": [
        {
          "internalType": "contract ArbitratorsRegistry",
          "name": "",
          "type": "address"
        }
      ],
      "stateMutability": "view",
      "type": "function"
    },
    {
      "inputs": [],
      "name": "complianceManager",
      "outputs": [
        {
          "internalType": "contract ComplianceManager",
          "name": "",
          "type": "address"
        }
      ],
      "stateMutability": "view",
      "type": "function"
    },
    {
      "inputs": [
        {
          "internalType": "bytes32",
          "name": "_invoiceId",
          "type": "bytes32"
        }
      ],
      "name": "confirmRelease",
      "outputs": [],
      "stateMutability": "nonpayable",
      "type": "function"
    },
    {
      "inputs": [
        {
          "internalType": "bytes32",
          "name": "_invoiceId",
          "type": "bytes32"
        },
        {
          "internalType": "address",
          "name": "_seller",
          "type": "address"
        },
        {
          "internalType": "address",
          "name": "_buyer",
          "type": "address"
        },
        {
          "internalType": "uint256",
          "name": "_amount",
          "type": "uint256"
        },
        {
          "internalType": "address",
          "name": "_token",
          "type": "address"
        },
        {
          "internalType": "uint256",
          "name": "_duration",
          "type": "uint256"
        },
        {
          "internalType": "address",
          "name": "_rwaNftContract",
          "type": "address"
        },
        {
          "internalType": "uint256",
          "name": "_rwaTokenId",
          "type": "uint256"
        }
      ],
      "name": "createEscrow",
      "outputs": [
        {
          "internalType": "bool",
          "name": "",
          "type": "bool"
        }
      ],
      "stateMutability": "nonpayable",
      "type": "function"
    },
    {
      "inputs": [
        {
          "internalType": "bytes32",
          "name": "_invoiceId",
          "type": "bytes32"
        }
      ],
      "name": "deposit",
      "outputs": [],
      "stateMutability": "payable",
      "type": "function"
    },
    {
      "inputs": [
        {
          "internalType": "bytes32",
          "name": "",
          "type": "bytes32"
        }
      ],
      "name": "disputeVotings",
      "outputs": [
        {
          "internalType": "uint256",
          "name": "snapshotArbitratorCount",
          "type": "uint256"
        },
        {
          "internalType": "uint256",
          "name": "votesForBuyer",
          "type": "uint256"
        },
        {
          "internalType": "uint256",
          "name": "votesForSeller",
          "type": "uint256"
        },
        {
          "internalType": "bool",
          "name": "resolved",
          "type": "bool"
        }
      ],
      "stateMutability": "view",
      "type": "function"
    },
    {
      "inputs": [],
      "name": "eip712Domain",
      "outputs": [
        {
          "internalType": "bytes1",
          "name": "fields",
          "type": "bytes1"
        },
        {
          "internalType": "string",
          "name": "name",
          "type": "string"
        },
        {
          "internalType": "string",
          "name": "version",
          "type": "string"
        },
        {
          "internalType": "uint256",
          "name": "chainId",
          "type": "uint256"
        },
        {
          "internalType": "address",
          "name": "verifyingContract",
          "type": "address"
        },
        {
          "internalType": "bytes32",
          "name": "salt",
          "type": "bytes32"
        },
        {
          "internalType": "uint256[]",
          "name": "extensions",
          "type": "uint256[]"
        }
      ],
      "stateMutability": "view",
      "type": "function"
    },
    {
      "inputs": [
        {
          "internalType": "bytes32",
          "name": "",
          "type": "bytes32"
        }
      ],
      "name": "escrows",
      "outputs": [
        {
          "internalType": "address",
          "name": "seller",
          "type": "address"
        },
        {
          "internalType": "address",
          "name": "buyer",
          "type": "address"
        },
        {
          "internalType": "uint256",
          "name": "amount",
          "type": "uint256"
        },
        {
          "internalType": "address",
          "name": "token",
          "type": "address"
        },
        {
          "internalType": "enum EscrowContract.EscrowStatus",
          "name": "status",
          "type": "uint8"
        },
        {
          "internalType": "address",
          "name": "payee",
          "type": "address"
        },
        {
          "internalType": "bool",
          "name": "sellerConfirmed",
          "type": "bool"
        },
        {
          "internalType": "bool",
          "name": "buyerConfirmed",
          "type": "bool"
        },
        {
          "internalType": "bool",
          "name": "disputeRaised",
          "type": "bool"
        },
        {
          "internalType": "address",
          "name": "disputeResolver",
          "type": "address"
        },
        {
          "internalType": "uint256",
          "name": "createdAt",
          "type": "uint256"
        },
        {
          "internalType": "uint256",
          "name": "expiresAt",
          "type": "uint256"
        },
        {
          "internalType": "address",
          "name": "rwaNftContract",
          "type": "address"
        },
        {
          "internalType": "uint256",
          "name": "rwaTokenId",
          "type": "uint256"
        },
        {
          "internalType": "uint256",
          "name": "feeAmount",
          "type": "uint256"
        },
        {
          "internalType": "uint256",
          "name": "discountRate",
          "type": "uint256"
        },
        {
          "internalType": "uint256",
          "name": "discountDeadline",
          "type": "uint256"
        }
      ],
      "stateMutability": "view",
      "type": "function"
    },
    {
      "inputs": [],
      "name": "feePercentage",
      "outputs": [
        {
          "internalType": "uint256",
          "name": "",
          "type": "uint256"
        }
      ],
      "stateMutability": "view",
      "type": "function"
    },
    {
      "inputs": [
        {
          "internalType": "bytes32",
          "name": "invoiceId",
          "type": "bytes32"
        }
      ],
      "name": "getVotingStatus",
      "outputs": [
        {
          "internalType": "uint256",
          "name": "snapshotCount",
          "type": "uint256"
        },
        {
          "internalType": "uint256",
          "name": "buyerVotes",
          "type": "uint256"
        },
        {
          "internalType": "uint256",
          "name": "sellerVotes",
          "type": "uint256"
        },
        {
          "internalType": "bool",
          "name": "resolved",
          "type": "bool"
        }
      ],
      "stateMutability": "view",
      "type": "function"
    },
    {
      "inputs": [
        {
          "internalType": "bytes32",
          "name": "",
          "type": "bytes32"
        },
        {
          "internalType": "address",
          "name": "",
          "type": "address"
        }
      ],
      "name": "hasVoted",
      "outputs": [
        {
          "internalType": "bool",
          "name": "",
          "type": "bool"
        }
      ],
      "stateMutability": "view",
      "type": "function"
    },
    {
      "inputs": [
        {
          "internalType": "address",
          "name": "forwarder",
          "type": "address"
        }
      ],
      "name": "isTrustedForwarder",
      "outputs": [
        {
          "internalType": "bool",
          "name": "",
          "type": "bool"
        }
      ],
      "stateMutability": "view",
      "type": "function"
    },
    {
      "inputs": [],
      "name": "minimumEscrowAmount",
      "outputs": [
        {
          "internalType": "uint256",
          "name": "",
          "type": "uint256"
        }
      ],
      "stateMutability": "view",
      "type": "function"
    },
    {
      "inputs": [
        {
          "internalType": "address",
          "name": "",
          "type": "address"
        },
        {
          "internalType": "address",
          "name": "",
          "type": "address"
        },
        {
          "internalType": "uint256",
          "name": "",
          "type": "uint256"
        },
        {
          "internalType": "bytes",
          "name": "",
          "type": "bytes"
        }
      ],
      "name": "onERC721Received",
      "outputs": [
        {
          "internalType": "bytes4",
          "name": "",
          "type": "bytes4"
        }
      ],
      "stateMutability": "pure",
      "type": "function"
    },
    {
      "inputs": [],
      "name": "paused",
      "outputs": [
        {
          "internalType": "bool",
          "name": "",
          "type": "bool"
        }
      ],
      "stateMutability": "view",
      "type": "function"
    },
    {
      "inputs": [],
      "name": "quorumPercentage",
      "outputs": [
        {
          "internalType": "uint256",
          "name": "",
          "type": "uint256"
        }
      ],
      "stateMutability": "view",
      "type": "function"
    },
    {
      "inputs": [
        {
          "internalType": "bytes32",
          "name": "invoiceId",
          "type": "bytes32"
        }
      ],
      "name": "raiseDispute",
      "outputs": [],
      "stateMutability": "nonpayable",
      "type": "function"
    },
    {
      "inputs": [
        {
          "internalType": "bytes32",
          "name": "_invoiceId",
          "type": "bytes32"
        },
        {
          "internalType": "bool",
          "name": "_sellerWins",
          "type": "bool"
        }
      ],
      "name": "resolveDispute",
      "outputs": [],
      "stateMutability": "nonpayable",
      "type": "function"
    },
    {
      "inputs": [
        {
          "internalType": "bytes32",
          "name": "invoiceId",
          "type": "bytes32"
        },
        {
          "internalType": "bool",
          "name": "sellerWins",
          "type": "bool"
        }
      ],
      "name": "safeEscape",
      "outputs": [],
      "stateMutability": "nonpayable",
      "type": "function"
    },
    {
      "inputs": [
        {
          "internalType": "address",
          "name": "_registry",
          "type": "address"
        }
      ],
      "name": "setArbitratorsRegistry",
      "outputs": [],
      "stateMutability": "nonpayable",
      "type": "function"
    },
    {
      "inputs": [
        {
          "internalType": "uint256",
          "name": "_feePercentage",
          "type": "uint256"
        }
      ],
      "name": "setFeePercentage",
      "outputs": [],
      "stateMutability": "nonpayable",
      "type": "function"
    },
    {
      "inputs": [
        {
          "internalType": "uint256",
          "name": "_minimumEscrowAmount",
          "type": "uint256"
        }
      ],
      "name": "setMinimumEscrowAmount",
      "outputs": [],
      "stateMutability": "nonpayable",
      "type": "function"
    },
    {
      "inputs": [
        {
          "internalType": "address",
          "name": "_treasury",
          "type": "address"
        }
      ],
      "name": "setTreasury",
      "outputs": [],
      "stateMutability": "nonpayable",
      "type": "function"
    },
    {
      "inputs": [],
      "name": "treasury",
      "outputs": [
        {
          "internalType": "address",
          "name": "",
          "type": "address"
        }
      ],
      "stateMutability": "view",
      "type": "function"
    },
    {
      "inputs": [],
      "name": "trustedForwarder",
      "outputs": [
        {
          "internalType": "address",
          "name": "",
          "type": "address"
        }
      ],
      "stateMutability": "view",
      "type": "function"
    },
    {
      "inputs": [
        {
          "internalType": "uint256",
          "name": "_percentage",
          "type": "uint256"
        }
      ],
      "name": "updateQuorumPercentage",
      "outputs": [],
      "stateMutability": "nonpayable",
      "type": "function"
    },
    {
      "inputs": [
        {
          "internalType": "bytes32",
          "name": "invoiceId",
          "type": "bytes32"
        },
        {
          "internalType": "bool",
          "name": "voteForBuyer",
          "type": "bool"
        }
      ],
      "name": "voteOnDispute",
      "outputs": [],
      "stateMutability": "nonpayable",
      "type": "function"
    }
  ],
  "bytecode": "0x61018080604052346101d857606081612905803803809161002082856101dc565b8339810103126101d85761003381610213565b9061004c604061004560208401610213565b9201610213565b916040519061005c6040836101dc565b600e8252602082016d115cd8dc9bddd0dbdb9d1c9858dd60921b8152604051926100876040856101dc565b600184526020840192603160f81b845260015f556080526100a781610227565b610140526100b4846103c2565b6101605251902091826101005251902080610120524660c0526040519060208201927f8b73c3c69bb8fe3d512ecc4cf759cc79239f7b179b0ffacaa9a75d522b39400f8452604083015260608201524660808201523060a082015260a0815261011e60c0826101dc565b51902060a0523060e0526033600c556064600d5560098054336001600160a01b03199182168117909255600780546001600160a01b03948516908316179055600a805482169092179091556032600b556008805493909216921691909117905560405161240a90816104fb8239608051818181610dfd01528181611628015261211d015260a05181505060c05181505060e05181505061010051815050610120518150506101405181610d0501526101605181610d2f0152f35b5f80fd5b601f909101601f19168101906001600160401b038211908210176101ff57604052565b634e487b7160e01b5f52604160045260245ffd5b51906001600160a01b03821682036101d857565b908151602081105f146102a1575090601f815111610261576020815191015160208210610252571790565b5f198260200360031b1b161790565b604460209160405192839163305a27a960e01b83528160048401528051918291826024860152018484015e5f828201840152601f01601f19168101030190fd5b6001600160401b0381116101ff57600254600181811c911680156103b8575b60208210146103a457601f8111610371575b50602092601f821160011461031057928192935f92610305575b50508160011b915f199060031b1c19161760025560ff90565b015190505f806102ec565b601f1982169360025f52805f20915f5b8681106103595750836001959610610341575b505050811b0160025560ff90565b01515f1960f88460031b161c191690555f8080610333565b91926020600181928685015181550194019201610320565b60025f52601f60205f20910160051c810190601f830160051c015b81811061039957506102d2565b5f815560010161038c565b634e487b7160e01b5f52602260045260245ffd5b90607f16906102c0565b908151602081105f146103ed575090601f815111610261576020815191015160208210610252571790565b6001600160401b0381116101ff57600354600181811c911680156104f0575b60208210146103a457601f81116104bd575b50602092601f821160011461045c57928192935f92610451575b50508160011b915f199060031b1c19161760035560ff90565b015190505f80610438565b601f1982169360035f52805f20915f5b8681106104a5575083600195961061048d575b505050811b0160035560ff90565b01515f1960f88460031b161c191690555f808061047f565b9192602060018192868501518155019401920161046c565b60035f52601f60205f20910160051c810190601f830160051c015b8181106104e5575061041e565b5f81556001016104d8565b90607f169061040c56fe6080806040526004361015610012575f80fd5b5f905f3560e01c908163150b7a0214611b3b5750806321c11d55146119005780632d83549c14611a025780632ffa9a741461197b57806331724eeb146119535780633ce3d3d5146119005780633edd9f351461171857806343a0e3e61461167a5780634fa76ec91461165c578063572b6c051461160757806357b8cb651461119e5780635c975abb1461117b57806361d027b314611152578063686e608314610e2c5780637da0a87714610de757806384b0196e14610ceb5780638b25b41214610ccd578063a001ecdd14610caf578063aadc3b7214610c65578063ae06c1b714610bc5578063b214faa5146107e8578063be6ac62114610743578063c53d5958146105a7578063e14f5b7d146102f2578063f0f4426014610235578063f0f9e6b7146101a6578063f851a4401461017d5763ff7bce2314610152575f80fd5b3461017a578060031936011261017a576007546040516001600160a01b039091168152602090f35b80fd5b503461017a578060031936011261017a576009546040516001600160a01b039091168152602090f35b503461017a57602036600319011261017a576004356101dc6101c66120f2565b6009546001600160a01b03918216911614611c18565b8015158061022a575b156101f057600c5580f35b60405162461bcd60e51b8152602060048201526012602482015271496e76616c69642070657263656e7461676560701b6044820152606490fd5b5060648111156101e5565b503461017a57602036600319011261017a5761024f611ba9565b61025a6101c66120f2565b6001600160a01b031680156102ad57600a80546001600160a01b0319811683179091556001600160a01b03167f4ab5be82436d353e61ca18726e984e561f5c1cc7c6d38b29d2553c790434705a8380a380f35b60405162461bcd60e51b815260206004820152601f60248201527f54726561737572792063616e6e6f74206265207a65726f2061646472657373006044820152606490fd5b503461017a57602036600319011261017a5760043580825260046020526040822061031b6120f2565b81546001600160a01b039182169116148015610581575b61033b90611c50565b600381019060ff825460a01c16600581101561056d5760010361053b576004019081549160ff8360b01c166105035760085460405163428ac57f60e01b81529390602090859060049082906001600160a01b03165afa9384156104f85786946104c0575b50831561048a5760ff60b01b1916600160b01b179055805460ff60a01b1916600160a11b1790556040516080810167ffffffffffffffff81118282101761047657907fc7d1b2cd4cf76e3b360b72761ab309e4fd1e3f25f3679f82e66410d221992ce592916040528181526003602082019186835260408101878152606082019388855287895260056020526040892092518355516001830155516002820155019051151560ff801983541691161790556104586120f2565b604080516001600160a01b039290921682526020820192909252a280f35b634e487b7160e01b85526041600452602485fd5b60405162461bcd60e51b815260206004820152600e60248201526d4e6f2061726269747261746f727360901b6044820152606490fd5b9093506020813d6020116104f0575b816104dc60209383611cea565b810103126104ec5751925f61039f565b5f80fd5b3d91506104cf565b6040513d88823e3d90fd5b60405162461bcd60e51b815260206004820152601060248201526f105b1c9958591e48191a5cdc1d5d195960821b6044820152606490fd5b60405162461bcd60e51b815260206004820152600a602482015269139bdd08199d5b99195960b21b6044820152606490fd5b634e487b7160e01b85526021600452602485fd5b5061033b61058d6120f2565b60018301546001600160a01b039182169116149050610332565b503461017a576105b636611bd5565b6105c16101c66120f2565b6105c9611d84565b818352600460205260ff600360408520015460a01c16600581101561072f5760026105f49114611c88565b8183526005602052604083209060038201600481549361061760ff861615611d45565b60085460405163428ac57f60e01b81529260209184919082906001600160a01b03165afa9182156107245787926106ee575b5061065a60649154600c5490611cc3565b0411156106b15760016106749360ff191617905582611daf565b6001600160a01b036106846120f2565b16907f592495e7a3de01be5fabdb3a3708dcaf58c9ca6932659b4995fc0cb81b5df8388380a36001815580f35b60405162461bcd60e51b815260206004820152601560248201527451756f72756d207374696c6c20706f737369626c6560581b6044820152606490fd5b9091506020813d60201161071c575b8161070a60209383611cea565b810103126104ec57519061065a610649565b3d91506106fd565b6040513d89823e3d90fd5b634e487b7160e01b84526021600452602484fd5b503461017a57602036600319011261017a576004356107636101c66120f2565b80156107a35760407f53d83680e714e0facec43bb3d3fd99c9927f551f58e1d9f5bc28bfb3c686e65d91600d549080600d5582519182526020820152a180f35b60405162461bcd60e51b815260206004820152601a60248201527f4d696e696d756d20616d6f756e74206d757374206265203e20300000000000006044820152606490fd5b50602036600319011261017a57600435610800611d84565b6108086120f2565b6007546040516372c1cc1b60e11b81526001600160a01b03928316600482018190529190921691602081602481865afa908115610b65578591610ba6575b50610b7057604051632a5bb1b760e11b815260048101829052602081602481865afa908115610b65578591610b46575b5015610b0e5760209060246040518094819363237f1a2160e01b835260048301525afa908115610b03578391610ad4575b5015610a9d578082526004602052604082206108c16120f2565b60018201805490916001600160a01b03918216911603610a6c57600482019060ff825460a81c16610a38576108f5836120ab565b600384018054919390916001600160a01b0316806109b75750833403610981578360027f9d39974c480d889b2e46ed1adc6e673ef0ea9f11554437438b05a17cecbde95e965b0155805460ff60a81b1916600160a81b179055805460ff60a01b1916600160a01b17905554604080516001600160a01b0390921682526020820192909252a26001815580f35b60405162461bcd60e51b815260206004820152600e60248201526d1098590811551208185b5bdd5b9d60921b6044820152606490fd5b60027f9d39974c480d889b2e46ed1adc6e673ef0ea9f11554437438b05a17cecbde95e96610a33878094610a2e6109ec6120f2565b6040516323b872dd60e01b60208201526001600160a01b039091166024820152306044820152606481019390935282608481015b03601f198101845283611cea565b61237c565b61093b565b60405162461bcd60e51b815260206004820152600c60248201526b105b1c9958591e481c185a5960a21b6044820152606490fd5b60405162461bcd60e51b81526020600482015260096024820152682737ba10313abcb2b960b91b6044820152606490fd5b60405162461bcd60e51b815260206004820152600f60248201526e139bc81a59195b9d1a5d1e4814d095608a1b6044820152606490fd5b610af6915060203d602011610afc575b610aee8183611cea565b810190611d2d565b5f6108a7565b503d610ae4565b6040513d85823e3d90fd5b60405162461bcd60e51b815260206004820152601060248201526f12d650c81b9bdd081d995c9a599a595960821b6044820152606490fd5b610b5f915060203d602011610afc57610aee8183611cea565b5f610876565b6040513d87823e3d90fd5b60405162461bcd60e51b815260206004820152600e60248201526d20b1b1b7bab73a10333937bd32b760911b6044820152606490fd5b610bbf915060203d602011610afc57610aee8183611cea565b5f610846565b503461017a57602036600319011261017a57600435610be56101c66120f2565b6103e88111610c285760407fb27c12a91635e11c22bffa7bd8e0a8735da52b94aaefd7f249776c7590ba789491600b549080600b5582519182526020820152a180f35b60405162461bcd60e51b81526020600482015260156024820152744665652063616e6e6f74206578636565642031302560581b6044820152606490fd5b503461017a57604036600319011261017a576040610c81611bbf565b9160043581526006602052209060018060a01b03165f52602052602060ff60405f2054166040519015158152f35b503461017a578060031936011261017a576020600b54604051908152f35b503461017a578060031936011261017a576020600d54604051908152f35b503461017a578060031936011261017a57610d8b90610d297f0000000000000000000000000000000000000000000000000000000000000000612186565b90610d537f00000000000000000000000000000000000000000000000000000000000000006122ac565b906020610d9960405193610d678386611cea565b8385525f368137604051968796600f60f81b885260e08589015260e0880190611bf4565b908682036040880152611bf4565b904660608601523060808601528260a086015284820360c08601528080855193848152019401925b828110610dd057505050500390f35b835185528695509381019392810192600101610dc1565b503461017a578060031936011261017a576040517f00000000000000000000000000000000000000000000000000000000000000006001600160a01b03168152602090f35b503461017a57610e3b36611bd5565b919060ff60015416611143576008546001600160a01b0316801561110b576020610e636120f2565b604051639f6bd2a960e01b81526001600160a01b03909116600482015291829060249082905afa908115610b035783916110ec575b50156110b657610ea6611d84565b808252600460205260ff600360408420015460a01c1660058110156110a2576002610ed19114611c88565b808252600560205260408220610eee60ff60038301541615611d45565b818352600660205260408320610f026120f2565b60018060a01b03165f5260205260ff60405f20541661106d5760085460405163428ac57f60e01b815290602090829060049082906001600160a01b03165afa908115611062578491611030575b5081548110611028575b50818352600660205260408320610f6e6120f2565b6001600160a01b03165f90815260209190915260409020805460ff19166001179055831561100c5760010192835460018101809111610ff857610ff19394555b817f3d3c0d41b9416af70d3a4a984a7d1b35c950b5ba7e61f38baa362961d4dff2e86020610fda6120f2565b604051941585526001600160a01b031693a3611fe4565b6001815580f35b634e487b7160e01b84526011600452602484fd5b60020192835460018101809111610ff857610ff1939455610fae565b81555f610f59565b90506020813d60201161105a575b8161104b60209383611cea565b810103126104ec57515f610f4f565b3d915061103e565b6040513d86823e3d90fd5b60405162461bcd60e51b815260206004820152600d60248201526c105b1c9958591e481d9bdd1959609a1b6044820152606490fd5b634e487b7160e01b83526021600452602483fd5b60405162461bcd60e51b815260206004820152600e60248201526d2737ba1030b93134ba3930ba37b960911b6044820152606490fd5b611105915060203d602011610afc57610aee8183611cea565b5f610e98565b60405162461bcd60e51b815260206004820152601060248201526f149959da5cdd1c9e481b9bdd081cd95d60821b6044820152606490fd5b63d93c066560e01b8252600482fd5b503461017a578060031936011261017a57600a546040516001600160a01b039091168152602090f35b503461017a578060031936011261017a57602060ff600154166040519015158152f35b503461017a5761010036600319011261017a576111b9611bbf565b604435916001600160a01b038316808403611603576084356001600160a01b03811691908290036115ff5760c4356001600160a01b038116908190036115fb5760e435906112086101c66120f2565b60048035865260205260408520546001600160a01b03166115be57600d54606435106115825761271061123f600b54606435611cc3565b0492831561154857816114e1575b61125960a43542611d20565b9060405195610220870187811067ffffffffffffffff8211176114cd5760409081526001600160a01b038a8116808a526020808b019586526064358b850190815260608c0195865260808c018d815260a08d019390935260c08c018d905260e08c018d90526101008c018d90526101208c018d9052426101408d01526101608c01979097526101808b01979097526101a08a01979097526101c08901979097526101e088018990526102008801899052600480358a52909452928720865181546001600160a01b031990811691881691909117825591516001820180548416918816919091179055915160028301559151600382018054909316941693909317905551909260058210156114b9575060038301805460ff60a01b191660a092831b60ff60a01b90811691909117909155828201516004808601805460c087015160e08801516101008901516001600160b81b03199093166001600160a01b039687161791151590971b9095169490941794151560a81b60ff60a81b169490941792151560b01b60ff60b01b16929092179092556101208301516005850180546001600160a01b0319908116928516929092179055610140840151600686015561016084015160078601556101808401516008860180549092169084161790556101a083015160098501556101c0830151600a8501556101e0830151600b85015561020090920151600c90930192909255604080519383168452939091166020830152606435928201929092529035907f0dd968c277d9dc6b36b6ec2b638324c3d937882c64ca109440bc050ebf26cb0790606090a2602060405160018152f35b634e487b7160e01b81526021600452602490fd5b634e487b7160e01b89526041600452602489fd5b813b1561154457604051632142170760e11b81526001600160a01b038816600482015230602482015260448101849052868160648183875af180156107245790879161152f575b505061124d565b8161153991611cea565b61154457855f611528565b8580fd5b60405162461bcd60e51b815260206004820152601260248201527146656520616d6f756e74206973207a65726f60701b6044820152606490fd5b60405162461bcd60e51b8152602060048201526014602482015273416d6f756e742062656c6f77206d696e696d756d60601b6044820152606490fd5b60405162461bcd60e51b8152602060048201526015602482015274457363726f7720616c72656164792065786973747360581b6044820152606490fd5b8380fd5b8280fd5b5080fd5b503461017a57602036600319011261017a576020611623611ba9565b6040517f00000000000000000000000000000000000000000000000000000000000000006001600160a01b039081169216919091148152f35b503461017a578060031936011261017a576020600c54604051908152f35b503461017a5761168936611bd5565b6116976101c69392936120f2565b82825260046020526040822060ff600482015460b01c16156116df576003015460a01c60ff169260058410156110a2576116d760026116dc949514611c88565b611daf565b80f35b60405162461bcd60e51b8152602060048201526011602482015270139bc8191a5cdc1d5d19481c985a5cd959607a1b6044820152606490fd5b50346104ec5760203660031901126104ec57600435611735611d84565b805f526004602052600460405f2061174b6120f2565b81546001600160a01b039081169116811480156118da575b61176c90611c50565b6001600160a01b0361177c6120f2565b16036118c157808201805460ff60a01b1916600160a01b1790555b015460ff8160a01c1690816118b3575b506117b5575b506001815580f35b5f818152600460205260409020600381015481546002830180549093926117e8926001600160a01b03908116911661214b565b60088101546001600160a01b03169081611831575b505060207f9410e7c5b50451e4b5bd5ce113fd48abebd7070eb9d080df08b115b7cdc416509154604051908152a25f6117ad565b600960018060a01b03600183015416910154823b156104ec57604051632142170760e11b81523060048201526001600160a01b039290921660248301526044820152905f908290606490829084905af180156118a857611892575b806117fd565b61189f9193505f90611cea565b5f91602061188c565b6040513d5f823e3d90fd5b60ff915060a81c165f6117a7565b808201805460ff60a81b1916600160a81b179055611797565b5061176c6118e66120f2565b60018401546001600160a01b039182169116149050611763565b346104ec5760203660031901126104ec576004355f908152600560209081526040918290208054600182015460028301546003909301548551928352938201529283015260ff1615156060820152608090f35b346104ec575f3660031901126104ec576008546040516001600160a01b039091168152602090f35b346104ec5760203660031901126104ec57611994611ba9565b61199f6101c66120f2565b6001600160a01b031680156119ca576bffffffffffffffffffffffff60a01b60085416176008555f80f35b60405162461bcd60e51b815260206004820152601060248201526f496e76616c696420726567697374727960801b6044820152606490fd5b346104ec5760203660031901126104ec576004355f52600460205260405f2060018060a01b0381541660018060a01b0360018301541660028301549260038101549360ff8560a01c169460048301549560018060a01b03600585015416600685015460078601549160018060a01b0360088801541693600988015495600a89015497600c600b8b01549a01549a6040519c8d5260208d015260408c015260018060a01b031660608b01526005811015611b27576102209a60ff9160808c015260018060a01b03811660a08c0152818160a01c16151560c08c0152818160a81c16151560e08c015260b01c1615156101008a01526101208901526101408801526101608701526101808601526101a08501526101c08401526101e0830152610200820152f35b634e487b7160e01b5f52602160045260245ffd5b346104ec5760803660031901126104ec57611b54611ba9565b50611b5d611bbf565b5060643567ffffffffffffffff81116104ec57366023820112156104ec57806004013567ffffffffffffffff81116104ec57369101602401116104ec57630a85bd0160e11b8152602090f35b600435906001600160a01b03821682036104ec57565b602435906001600160a01b03821682036104ec57565b60409060031901126104ec576004359060243580151581036104ec5790565b805180835260209291819084018484015e5f828201840152601f01601f1916010190565b15611c1f57565b60405162461bcd60e51b81526020600482015260096024820152682737ba1030b236b4b760b91b6044820152606490fd5b15611c5757565b60405162461bcd60e51b81526020600482015260096024820152684e6f7420706172747960b81b6044820152606490fd5b15611c8f57565b60405162461bcd60e51b815260206004820152600c60248201526b139bdd08191a5cdc1d5d195960a21b6044820152606490fd5b81810292918115918404141715611cd657565b634e487b7160e01b5f52601160045260245ffd5b90601f8019910116810190811067ffffffffffffffff821117611d0c57604052565b634e487b7160e01b5f52604160045260245ffd5b91908201809211611cd657565b908160209103126104ec575180151581036104ec5790565b15611d4c57565b60405162461bcd60e51b815260206004820152601060248201526f105b1c9958591e481c995cdbdb1d995960821b6044820152606490fd5b60025f5414611d935760025f55565b633ee5aeb560e01b5f5260045ffd5b91908203918211611cd657565b5f91815f52600460205260405f2090600382019060ff825460a01c166005811015611b27576002611de09114611c88565b611de86120f2565b6005840180546001600160a01b0319166001600160a01b03928316179055825460ff60a01b1916600360a01b178355835460018501546002860154600a87015491841695929093169392611e9c929091887fc309ec0196a2aa529cef11b186ef4a3a04c52a9075daf8be91c7c95ede0fdc876040611e646120f2565b81516001600160a01b0390911681528815156020820152a28281611f88575b5050546001600160a01b03168315611f8157849061214b565b15611f7a57505b60088201546001600160a01b03169182611f11575b50505081526004602052600c6040822082815582600182015582600282015582600382015582600482015582600582015582600682015582600782015582600882015582600982015582600a82015582600b8201550155565b60090154823b156104ec57604051632142170760e11b81523060048201526001600160a01b039290921660248301526044820152905f908290606490829084905af180156118a857611f65575b8080611eb8565b611f729192505f90611cea565b5f905f611f5e565b9050611ea3565b859061214b565b8254600a54939450611fdc93611fac9184916001600160a01b03908116911661214b565b897f156e588d1067ba3c8a6a7f4376ef70794f8afed114dc9d1421e054b65743e6306020604051858152a2611da2565b905f80611e83565b805f52600560205260405f206003810190815460ff81166120a557606461200f8354600c5490611cc3565b0492831561209c575b6001830190600282549401908154956120318787611d20565b1015612041575b50505050505050565b60016060957f87a706357fd6156692da2afe6f82239426dd27f4cb9b46e0e3a1c5d308377fc897119460ff191617905561207b8387611daf565b5490549060405192835260208301526040820152a25f808080808080612038565b60019350612018565b50505050565b600b810154801515806120e4575b6120c557506002015490565b6127106120da60026120e19401549283611cc3565b0490611da2565b90565b50600c8201544211156120b9565b601436101580612119575b156121155760131936013681116104ec573560601c90565b3390565b50337f00000000000000000000000000000000000000000000000000000000000000006001600160a01b0316146120fd565b60405163a9059cbb60e01b60208201526001600160a01b039092166024830152604482019290925261218491610a2e8260648101610a20565b565b60ff81146121cc5760ff811690601f82116121bd57604051916121aa604084611cea565b6020808452838101919036833783525290565b632cd44ac360e21b5f5260045ffd5b506040515f6002548060011c91600182169182156122a2575b60208410831461228e57838552849290811561226f5750600114612210575b6120e192500382611cea565b5060025f90815290917f405787fa12a823e0f2b7631cc41b3ba8828b3321ca811111fa75cd3aa3bb5ace5b8183106122535750509060206120e192820101612204565b602091935080600191548385880101520191019091839261223b565b602092506120e194915060ff191682840152151560051b820101612204565b634e487b7160e01b5f52602260045260245ffd5b92607f16926121e5565b60ff81146122d05760ff811690601f82116121bd57604051916121aa604084611cea565b506040515f6003548060011c9160018216918215612372575b60208410831461228e57838552849290811561226f5750600114612313576120e192500382611cea565b5060035f90815290917fc2575a0e9e593c00f959f8c92f12db2869c3395a3b0502d05e2516446f71f85b5b8183106123565750509060206120e192820101612204565b602091935080600191548385880101520191019091839261233e565b92607f16926122e9565b905f602091828151910182855af1156118a8575f513d6123cb57506001600160a01b0381163b155b6123ab5750565b635274afe760e01b5f9081526001600160a01b0391909116600452602490fd5b600114156123a456fea2646970667358221220be6a288baa3be3bf258b7fae2c8fee50d7ac70458c3673e01c48a6a25f5c819e64736f6c634300081c0033",
  "linkReferences": {},
  "deployedLinkReferences": {}
}